:100000000C941A010C940C0C0C94E10B0C94B60B90
:100010000C948B0B0C94600B0C94350B0C940A0B0A
:100020000C94DF0A0C9444010C9444010C94440198
:100030000C9444010C9444010C9444010C9444012C
:100040000C9444010C94210D0C9444010C94440133
:100050000C9444010C9444010C9444010C94950AB2
:100060000C9444010C94610C0C94370C0C944401D6
:100070000C9444010C9444010C9444010C944401EC
:100080000C94F30C0C9444010C9444010C94440122
:100090000C9444010C9444010C9444010C944F0DB5
:1000A0000C9444010C9444010C94C50C0C94440130
:1000B0000C9444010C9444010C9444010C94970C4E
:1000C0000C9444010C9444010C9444010C9444019C
:1000D0000C9444010C9444010C9444010C9444018C
:1000E0000C944401084AD73B3BCE016E84BCBFFD53
:1000F000C12F3D6C74319ABD56833DDA3D00C77FF8
:1001000011BED9E4BB4C3E916BAAAABE0000008090
:100110003F00000020002300260029002C002F00B3
:100120003200000100000301060109010000210066
:10013000240027002A002D003000330001010000B8
:10014000040107010A0100002200250028002B00FD
:100150002E003100340002010000050108010B01EE
:1001600005050505070508080808020202020A0A33
:100170000808040404040101010101010101030351
:10018000030303030303040707070C0C0C0C0C0CFC
:100190000C0C0202020206060606060606060B0BF9
:1001A0000B0B0B0B0B0B010210202008081020403A
:1001B000102040800201020108040201010204082B
:1001C00010204080804020100804020180040201B9
:1001D0008040201008040201080402010102040802
:1001E00010204080010204081020408000000A0B0B
:1001F00002090C0D0E0807030401000000000000B6
:1002000000000000000000000000000000000000EE
:1002100000000000000000001211100000000000AB
:1002200000000000000000000000000000000000CE
:100230000000730E11241FBECFEFD1E2DEBFCDBF91
:1002400012E0A0E0B2E0EAE9F8E300E00BBF02C090
:1002500007900D92AC39B107D9F726E0ACE9B2E0CE
:1002600001C01D92A631B207E1F711E0CAE1D1E069
:1002700004C02197FE010E94851AC931D107C9F730
:100280000E94AF100C944B1C0C94000081508231E2
:1002900008F058C0E82FF0E0E05BFE4F0C94851AA0
:1002A00070017401620168016C01A20177017D0196
:1002B000810187018B018F0195019901A2019D01A7
:1002C000A301A701809180008F778093800008951B
:1002D000809180008F7DF9CF80918000877FF5CF5E
:1002E00084B58F7784BD089584B58F7DFBCF8091D1
:1002F000B0008F778093B00008958091B0008F7D1B
:10030000F9CF809190008F7780939000089580912D
:1003100090008F7DF9CF80919000877FF5CF8091FD
:10032000A0008F778093A00008958091A0008F7D1A
:10033000F9CF8091A000877FF5CF809120018F7742
:10034000809320010895809120018F7DF9CF8091C5
:100350002001877FF5CF1F93CF93DF93282F30E0C5
:10036000F901E451FE4F8491F901EA55FE4FD49111
:10037000F901E05AFE4FC491CC23A9F0162F811148
:100380000E944601EC2FF0E0EE0FFF1FEA5BFE4FEC
:10039000A591B4918FB7F894EC91111108C0D09544
:1003A000DE23DC938FBFDF91CF911F910895DE2B69
:1003B000F8CFCF93DF9390E0FC01EA55FE4F2491F4
:1003C000805A9E4FFC0184918823D1F090E0880FE1
:1003D000991FFC01E45DFE4FA591B491FC01EA5B1D
:1003E000FE4FC591D49161110EC09FB7F8948C91C6
:1003F000E22FE0958E238C932881E223E8839FBF30
:10040000DF91CF9108958FB7F894EC91E22BEC93A4
:100410008FBFF6CF3FB7F8948091180390911903DE
:10042000A0911A03B0911B0326B5A89B05C02F3FCE
:1004300019F00196A11DB11D3FBFBA2FA92F982F0A
:100440008827BC01CD01620F711D811D911D42E005
:10045000660F771F881F991F4A95D1F708958F92CD
:100460009F92AF92BF92CF92DF92EF92FF924B0199
:100470005C010E940A026B017C010E940A026C1955
:100480007D098E099F09683E734081059105A8F397
:1004900021E0821A9108A108B10888EEC80E83E015
:1004A000D81EE11CF11C81149104A104B10429F7A8
:1004B000FF90EF90DF90CF90BF90AF909F908F9084
:1004C0000895089508950895AF92BF92CF92DF9254
:1004D000EF92FF920F931F93CF93DF936C017B01F9
:1004E0008B01040F151FEB015E01AE18BF08C0178A
:1004F000D10759F06991D601ED91FC910190F081FD
:10050000E02DC6010995892B79F7C501DF91CF91BF
:100510001F910F91FF90EF90DF90CF90BF90AF9021
:100520000895FC01538D448D252F30E0842F90E0F9
:10053000821B930B541710F0CF96089501970895DE
:10054000FC01918D828D981761F0A28DAE0FBF2FA7
:10055000B11D5D968C91928D9F5F9F73928F90E0FD
:1005600008958FEF9FEF0895FC01918D828D98176C
:1005700031F0828DE80FF11D858D90E008958FEFA9
:100580009FEF0895FC01918D228D892F90E0805C72
:100590009F4F821B91098F73992708958CE693E0F2
:1005A0000E94C20221E0892B09F420E0822F0895E5
:1005B000FC01A48DA80FB92FB11DA35ABF4F2C91D8
:1005C000848D90E001968F739927848FA689B789CF
:1005D0002C93A089B1898C91837080648C93938DC6
:1005E000848D981306C00288F389E02D80818F7D69
:1005F00080830895EF92FF920F931F93CF93DF9321
:10060000EC0181E0888F9B8D8C8D98131AC0E8894E
:10061000F989808185FF15C09FB7F894EE89FF891D
:100620006083E889F98980818370806480839FBFBB
:1006300081E090E0DF91CF911F910F91FF90EF90BB
:100640000895F62E0B8D10E00F5F1F4F0F731127CB
:10065000E02E8C8D8E110CC00FB607FCFACFE88906
:10066000F989808185FFF5CFCE010E94D802F1CFB4
:10067000EB8DEC0FFD2FF11DE35AFF4FF0829FB77A
:10068000F8940B8FEA89FB8980818062CFCFCF936A
:10069000DF93EC01888D8823B9F0AA89BB89E889AA
:1006A000F9898C9185FD03C0808186FD0DC00FB650
:1006B00007FCF7CF8C9185FFF2CF808185FFEDCFCE
:1006C000CE010E94D802E9CFDF91CF91089580E05A
:1006D00090E0892B29F00E94CE0281110E94000037
:1006E00080E090E0892B49F080E090E0892B29F0B0
:1006F0000E94000081110E94000080E090E0892BA0
:1007000049F080E090E0892B29F00E9400008111DF
:100710000E94000080E090E0892B49F080E090E0AA
:10072000892B29F00E94000081110C94000008958B
:100730008FB7F894809104038FBF08958EBD000099
:100740000DB407FEFDCF8EB508958CBD9DBD0895F7
:10075000AF92BF92CF92DF92EF92FF920F931F93CF
:10076000CF93DF936B017A01EC01C052DD4F2881FA
:100770003CE0389F8001399F100D1124A090A50402
:10078000B12C27FF1FC0FB011182108288818F5F6F
:10079000888388819801280F311D87FD3A95F601DD
:1007A0002A153B051CF488818C30C4F1808191812D
:1007B000049680349C4908F473C0F60180819181CD
:1007C000049670C088819801280F311D87FD3A95E5
:1007D0002A153B05DCF68881A801480F511D87FDCD
:1007E0005A95FA01EE0FFF1FE40FF51FEB5EFB4F6A
:1007F000808186FFCBCF8881F801E80FF11D87FD4E
:10080000FA95CF01EE0FFF1FE80FF91FEB5EFB4FCC
:10081000808160E08F730E94AB01B8CF80819181AD
:100820002881A801420F511D27FD5A959A01FA010E
:10083000EE0FFF1FE20FF31FEB5EFB4F21813281B2
:10084000820F931FF7019183808388819801280F7D
:10085000311D87FD3A95F901EE0FFF1FE20FF31FDF
:10086000EB5EFB4F808186FF22C08881080F111D3F
:1008700087FD1A95F801EE0FFF1FE00FF11FEB5EE9
:10088000FB4F808161E08F73DF91CF911F910F91BA
:10089000FF90EF90DF90CF90BF90AF900C94AB01A2
:1008A00080E49CE9F701918380838FEF8883DF9157
:1008B000CF911F910F91FF90EF90DF90CF90BF905D
:1008C000AF9008952091BD02260F3327331F2132A8
:1008D0003105ECF420914203FC0190E080E02430EB
:1008E00069F082E00895A091BD022191AC014356C8
:1008F0005D4FA40FB52FB11D2C930196861798F369
:100900008091BD02680F6093BD0280E0089581E090
:1009100008951092420381E08093410310921C03DA
:1009200061E084E10E94AB0161E085E10E94AB01DE
:10093000E9EBF0E080818E7F808380818D7F8083F2
:1009400088E48093B80085E48093BC000895CF9339
:10095000DF9391E090939C028823B9F0C091B80096
:10096000D091BA008091BC008A7B8093BC0060E08B
:1009700084E10E94AB0160E085E10E94AB010E942E
:100980008904D093BA00C093B800DF91CF91089545
:100990008F929F92AF92BF92CF92DF92EF92FF928F
:1009A0000F931F93CF93DF93D0916B03D13208F055
:1009B000D7C0182FC0916A030E940A026B017C0104
:1009C0008091420381116BC082E0809342031093B7
:1009D00041038FEF8093400310923F03D0933E0377
:1009E000AAE4B3E0EEE1F3E080E0D81391C0109206
:1009F0001D0380911D03CC0FC82BC0931D03809154
:100A00001C03813009F088C010921C030E940A0266
:100A10006B017C0180911D038093BB008091440396
:100A200090914503A0914603B0914703892B8A2BEF
:100A30008B2BA1F00E940A02009144031091450300
:100A400020914603309147036C197D098E099F0957
:100A5000061717072807390708F442C08091BC0021
:100A600083FDD8CF85EC8093BC000E940A026B0105
:100A70007C0180914203823009F450C08091400390
:100A80008F3F09F46FC080914003803209F46CC03D
:100A900080914003803309F469C084E026C08091CE
:100AA000440390914503A0914603B0914703892BDD
:100AB0008A2B8B2B09F484CF0E940A028090440376
:100AC00090904503A0904603B09047036C197D09B0
:100AD0008E099F0986169706A806B90608F070CFFA
:100AE000809143030E94A70485E01092490310926D
:100AF0006B0310924803DF91CF911F910F91FF90EC
:100B0000EF90DF90CF90BF90AF909F908F9008951F
:100B10009D9191938F5F69CF85EEA5CF809144031E
:100B200090914503A0914603B0914703892B8A2BEE
:100B30008B2B09F49ECF0E940A020091440310916E
:100B4000450320914603309147036C197D098E09B6
:100B50009F09061717072807390708F08ACFC0CF63
:100B600081E0C3CF80E0C1CF82E0BFCF83E0BDCFC3
:100B70000895E0910A0380910903E81730F4F0E04A
:100B8000EC51FD4F808190E008958FEF9FEF089525
:100B900090910A03809109032FEF3FEF981748F4D3
:100BA000E92FF0E0EC51FD4F208130E09F5F909302
:100BB0000A03C90108958091090390910A03891BD2
:100BC000990B0895CF92DF92EF92FF920F931F93AC
:100BD000CF93DF937C01CB018A012091480322232C
:100BE00089F0EB016B01C40ED51ECC15DD0569F053
:100BF0006991D701ED91FC910190F081E02DC70141
:100C00000995F3CF642F0E946204C801DF91CF9150
:100C10001F910F91FF90EF90DF90CF900895CF93A9
:100C2000DF931F92CDB7DEB769832091480322235B
:100C3000F9F020916B03203258F021E030E0FC0104
:100C40003383228390E080E00F90DF91CF9108956D
:100C500080914903E82FF0E0E65BFC4F9981908397
:100C60008F5F8093490380936B0381E090E0ECCF2A
:100C700061E0CE0101960E946204F7CF90E080E02F
:100C80000895EF92FF920F931F93CF93DF9300D0BD
:100C900000D0CDB7DEB78C01FC0120AD31AD3327DC
:100CA000F901E451FE4F8491F901EA55FE4FE490B9
:100CB000F901E05AFE4FF49070E060E0FF2099F0F7
:100CC00081110E944601EF2DF0E0EE0FFF1FEE5E56
:100CD000FE4FA591B491EC91EE2291E080E009F4F1
:100CE00090E0692F782F072E000C880B990B0E943B
:100CF000F91869837A838B839C8369817A818B81DC
:100D00009C8120E030E0A9010E94351CF8011816F2
:100D1000D4F4608171818281938120E030E040E8E9
:100D20005FE30E948F1AF80160837183828393834B
:100D30000F900F900F900F90DF91CF911F910F9117
:100D4000FF90EF900895608171818281938120E00E
:100D500030E040E85FE30E948E1AE5CF86ED95E033
:100D60000C94410686E995E00C944106FC01019043
:100D70000020E9F73197AF01481B590BBC018CE605
:100D800093E00C9464028F929F92AF92BF920F9364
:100D90001F93CF93DF93CDB7DEB7A1970FB6F8942B
:100DA000DEBF0FBECDBF19A2423008F44AE08E016B
:100DB0000F5D1F4F842E912CB12CA12CA501940105
:100DC0000E94481AE62FB901CA01EA30F4F4E05D46
:100DD000D801EE938D01232B242B252B79F790E05E
:100DE00080E0109719F0CD010E94B606A1960FB6CB
:100DF000F894DEBF0FBECDBFDF91CF911F910F9151
:100E0000BF90AF909F908F900895E95CE1CF0F93D2
:100E10001F93FC0100E012E12AE730E090E0401768
:100E200051076207730740F4369527951795079584
:100E30009F5F9630A1F797E0292F286B2695208396
:100E40009095917091831F910F9108954F925F92A9
:100E50006F927F928F929F92AF92BF92CF92DF92CA
:100E6000EF92FF920F931F93CF936B017C01742E2F
:100E7000AC019B010E94461C882399F084E392E018
:100E8000CF911F910F91FF90EF90DF90CF90BF9087
:100E9000AF909F908F907F906F905F904F900C9449
:100EA000B60646015701E894B7F82FEF3FEF4FE73A
:100EB0005FE7C501B4010E94461C81110DC02FEFF0
:100EC0003FEF4FE75FE7C501B4010E94F218181623
:100ED0001CF488E392E0D4CF2FEF3FEF4FE75FE4BD
:100EE000C701B6010E94351C18161CF48CE392E071
:100EF000C7CF2FEF3FEF4FE75FECC701B6010E946E
:100F0000F21887FDF3CF20E030E0A901C701B60158
:100F10000E94F21810E000E087FF0AC06DE28CE644
:100F200093E00E94FA028C01F7FAF094F7F8F0943B
:100F3000C0E060E070E080E09FE37C1641F020E0DC
:100F400030E040E251E40E946D1BCF5FF6CFA70175
:100F500096010E948F1A2B013C010E94DF1B4B015E
:100F60005C014AE00E94C3067C01E00EF11ECC2326
:100F7000C1F1C501B4010E94F7189B01AC01C30186
:100F8000B2010E948E1A4B015C016EE28CE693E086
:100F90000E94FA02E80EF91EC15018F120E030E07C
:100FA00040E251E4C501B4010E9458192B013C01F3
:100FB0000E94DF1B4B01B12CA12C4AE0C501B401FA
:100FC0000E94C306E80EF91EC501B4010E94F7187D
:100FD0009B01AC01C301B2010E948E1A4B015C015E
:100FE000DBCFC701CF911F910F91FF90EF90DF9062
:100FF000CF90BF90AF909F908F907F906F905F90B9
:101000004F9008954F925F926F927F928F929F922E
:10101000AF92BF92CF92DF92EF92FF920F931F9306
:10102000CF93DF9300D0CDB7DEB7B62EE42FE11417
:10103000F104A1F480E00F900F90DF91CF911F9108
:101040000F91FF90EF90DF90CF90BF90AF909F9067
:101050008F907F906F905F904F900895B901A80195
:101060001E2F6C01DC0115962C911597213009F08B
:10107000F5C08D919C91119714963C912093480353
:1010800030936A031092490310926B03DC01ED91D7
:10109000FC910190F081E02D6B2D099580E00E947C
:1010A000C804F60104810E940A024B015C01809190
:1010B0004203811166C081E0809342038093410323
:1010C0009FEF9093400310923F03910F90933E0344
:1010D00080931D0380911D03000F082B00931D03B7
:1010E00080911C03813009F093C010921C030E9470
:1010F0000A024B015C0180911D038093BB0080912B
:10110000440390914503A0914603B0914703892B76
:101110008A2B8B2BA1F00E940A024090440350902E
:1011200045036090460370904703681979098A095E
:101130009B09461657066806790608F443C0809155
:10114000BC0083FDD8CF85EC8093BC000E940A02CE
:101150004B015C0180914203813009F45BC08091B6
:101160003F03811708F078C080913F03EEE1F3E080
:10117000A4EEB2E090E0981751F121912D939F5F7A
:10118000FACF8091440390914503A0914603B0911A
:101190004703892B8A2B8B2B09F489CF0E940A02E3
:1011A000409044035090450360904603709047037D
:1011B000681979098A099B0946165706680679064F
:1011C00008F075CF809143030E94A70480E010923D
:1011D0000A0380930903D60116968C9318132ACF1D
:1011E0005701012F10E0C5018E199F098017910743
:1011F00008F065C0F60180819181DC01ED91FC91E0
:101200000284F385E02D0995F50181935F01EBCF11
:1012100085EE9ACF8091440390914503A0914603B7
:10122000B0914703892B8A2B8B2B09F493CF0E9413
:101230000A0240904403509045036090460370902A
:101240004703681979098A099B09461657066806F3
:10125000790608F07FCFB6CF812F88CFCE010196D7
:101260000E94070789819A810E94A50360E0D60148
:1012700014968C910E94AB018B2D80680E949E0376
:10128000412F50E0F70180818EBDCA01019741F0E6
:1012900031810DB407FEFDCF2EB53EBD2193F6CFB3
:1012A000415051094E0D5F1D0DB407FEFDCF8EB5A7
:1012B000DA018C9361E0F60184810E94AB0181E048
:1012C000BACE4F925F926F927F92AF92BF92CF92BF
:1012D000DF92EF92FF920F931F93CF93DF9300D093
:1012E000CDB7DEB76C01A62EB42EDC0117964D905B
:1012F0005D906D907C901A9715962C9115972130E2
:1013000009F047C08D919C91119714963C912093C0
:10131000480330936A031092490310926B03DC0177
:10132000ED91FC910190F081E02D0995F60180810D
:101330009181DC01ED91FC910190F081E02D6B2D0C
:10134000099581E00E94C8046AE070E080E090E0C6
:101350000E942F02FE0131967F019301820141E03C
:101360006A2DC6010E94020881E099819B1180E0EC
:101370000F900F90DF91CF911F910F91FF90EF9001
:10138000DF90CF90BF90AF907F906F905F904F9025
:101390000895B301A201CE0101960E940707898139
:1013A0009A810E94A50360E0F60184810E94AB014E
:1013B0008A2D0E949E038B2D0E949E0361E0D60120
:1013C00014968C910E94AB01BFCFDF92EF92FF92F7
:1013D0000F931F93CF93DF93EC01162FD42E790137
:1013E0004CE865E20E946109811109C080E0DF914B
:1013F000CF911F910F91FF90EF90DF900895412FB3
:1014000066E2CE010E946109882381F34D2D406878
:1014100067E2CE010E946109882341F361E070E038
:1014200080E090E00E942F020F81188529853A857F
:101430004D2D69E4CE010E940208D9CFEF92FF92B0
:101440000F931F93CF93DF931F92CDB7DEB78C011D
:10145000E62EF42E4CE065E20E946109811102C083
:1014600080E023C04E2D66E2C8010E9461098823F6
:10147000B9F34F2D63E6C8010E946109882381F307
:1014800041E867E2C8010E946109882349F39E018F
:101490002F5F3F4F41E06E2DC8010E94E509882370
:1014A00021F081E099819F11DBCF0F90DF91CF91E7
:1014B0001F910F91FF90EF90089585ED8093BC00F0
:1014C0008091440390914503A0914603B091470356
:1014D0000796A11DB11D23E0B695A7959795879511
:1014E0002A95D1F72091BC0024FD03C0109242033D
:1014F00008954091440350914503609146037091D3
:101500004703452B462B472B69F30097A105B105EF
:1015100041F02AE22A95F1F700C00197A109B1092B
:10152000E1CF809143030C94A7041F920F920FB652
:101530000F9211242F933F938F939F93AF93BF9359
:101540008091140390911503A0911603B091170395
:101550003091130323E0230F2D3758F50196A11D79
:10156000B11D209313038093140390931503A0934C
:101570001603B09317038091180390911903A0915B
:101580001A03B0911B030196A11DB11D809318038E
:1015900090931903A0931A03B0931B03BF91AF91CB
:1015A0009F918F913F912F910F900FBE0F901F90A1
:1015B000189526E8230F0296A11DB11DD2CF1F92C8
:1015C0000F920FB60F9211240BB60F922F933F93E9
:1015D0004F935F936F937F938F939F93AF93BF933B
:1015E000EF93FF93E0910E02F0910F020995FF91A6
:1015F000EF91BF91AF919F918F917F916F915F918B
:101600004F913F912F910F900BBE0F900FBE0F90F7
:101610001F9018951F920F920FB60F9211240BB6C0
:101620000F922F933F934F935F936F937F938F937B
:101630009F93AF93BF93EF93FF93E0910C02F091D0
:101640000D020995FF91EF91BF91AF919F918F91FD
:101650007F916F915F914F913F912F910F900BBEB2
:101660000F900FBE0F901F9018951F920F920FB6FC
:101670000F9211240BB60F922F933F934F935F93CA
:101680006F937F938F939F93AF93BF93EF93FF934A
:10169000E0910202F09103020995FF91EF91BF9151
:1016A000AF919F918F917F916F915F914F913F91FA
:1016B0002F910F900BBE0F900FBE0F901F9018959B
:1016C0001F920F920FB60F9211240BB60F922F9309
:1016D0003F934F935F936F937F938F939F93AF93BA
:1016E000BF93EF93FF93E0910002F09101020995FF
:1016F000FF91EF91BF91AF919F918F917F916F91EA
:101700005F914F913F912F910F900BBE0F900FBEA5
:101710000F901F9018951F920F920FB60F921124E1
:101720000BB60F922F933F934F935F936F937F93DB
:101730008F939F93AF93BF93EF93FF93E0910A0230
:10174000F0910B020995FF91EF91BF91AF919F919D
:101750008F917F916F915F914F913F912F910F905A
:101760000BBE0F900FBE0F901F9018951F920F92F7
:101770000FB60F9211240BB60F922F933F934F93F6
:101780005F936F937F938F939F93AF93BF93EF93E9
:10179000FF93E0910802F09109020995FF91EF9102
:1017A000BF91AF919F918F917F916F915F914F9179
:1017B0003F912F910F900BBE0F900FBE0F901F9077
:1017C00018951F920F920FB60F9211240BB60F921D
:1017D0002F933F934F935F936F937F938F939F9339
:1017E000AF93BF93EF93FF93E0910602F09107024E
:1017F0000995FF91EF91BF91AF919F918F917F914B
:101800006F915F914F913F912F910F900BBE0F9071
:101810000FBE0F901F9018951F920F920FB60F9248
:1018200011240BB60F922F933F934F935F936F93B7
:101830007F938F939F93AF93BF93EF93FF93E09129
:101840000402F09105020995FF91EF91BF91AF91CC
:101850009F918F917F916F915F914F913F912F91C8
:101860000F900BBE0F900FBE0F901F9018951F92F8
:101870000F920FB60F9211240BB60F922F933F9336
:101880004F935F936F937F938F939F93AF93BF9388
:10189000EF93FF938CE693E00E94D802FF91EF91C3
:1018A000BF91AF919F918F917F916F915F914F9178
:1018B0003F912F910F900BBE0F900FBE0F901F9076
:1018C00018951F920F920FB60F9211240BB60F921C
:1018D0002F938F939F93EF93FF93E0917C03F0916D
:1018E0007D038081E0918203F091830382FD1DC01E
:1018F0009081809185038F5F8F732091860382177B
:1019000041F0E0918503F0E0E459FC4F958F80931E
:101910008503FF91EF919F918F912F910F900BBEB7
:101920000F900FBE0F901F9018958081F2CF1F92DD
:101930000F920FB60F9211240BB60F922F933F9375
:101940004F935F936F937F938F939F93AF93BF93C7
:10195000EF93FF9348E251E064E271E090E080E0B1
:101960000E94A803FF91EF91BF91AF919F918F913A
:101970007F916F915F914F913F912F910F900BBE8F
:101980000F900FBE0F901F9018951F920F920FB6D9
:101990000F9211240BB60F922F933F934F935F93A7
:1019A0006F937F938F939F93AF93BF93EF93FF9327
:1019B00048EA50E064EA70E083E090E00E94A80307
:1019C000FF91EF91BF91AF919F918F917F916F9117
:1019D0005F914F913F912F910F900BBE0F900FBED3
:1019E0000F901F9018951F920F920FB60F9211240F
:1019F0000BB60F922F933F934F935F936F937F9309
:101A00008F939F93AF93BF93EF93FF9348E950E079
:101A100064E970E082E090E00E94A803FF91EF91FA
:101A2000BF91AF919F918F917F916F915F914F91F6
:101A30003F912F910F900BBE0F900FBE0F901F90F4
:101A400018951F920F920FB60F9211240BB60F929A
:101A50002F933F934F935F936F937F938F939F93B6
:101A6000AF93BF93EF93FF9348E850E064E870E0D2
:101A700081E090E00E94A803FF91EF91BF91AF91A8
:101A80009F918F917F916F915F914F913F912F9196
:101A90000F900BBE0F900FBE0F901F9018951F92C6
:101AA0000F920FB60F9211240BB60F922F933F9304
:101AB0004F935F936F937F938F939F93AF93BF9356
:101AC000EF93FF938091B900887F803609F44DC071
:101AD00008F040C0883209F4A9C028F5803109F423
:101AE0009DC0C8F4882309F4FBC0883009F496C06F
:101AF000FF91EF91BF91AF919F918F917F916F91E6
:101B00005F914F913F912F910F900BBE0F900FBEA1
:101B10000F901F901895883109F488C0803241F7E2
:101B20008093400314C0803409F49DC040F4803396
:101B3000B9F38833E9F68093400385ECB0C0803573
:101B400009F485C0883509F496C0883489F60E9466
:101B50005D0ACECF883909F48CC038F5883729F072
:101B600050F4883611F0803719F683E080934203F1
:101B70001092DF0257C0883809F47BC0803919F011
:101B8000803809F0B5CF8091DF02803208F071C053
:101B9000E091DF0281E08E0F8093DF028091BB0035
:101BA000F0E0E154FD4F80833DC0803B39F0E0F42C
:101BB000803A09F479C0883A09F09ACF84E080939A
:101BC00042031092BE021092BD02E0910703F09111
:101BD000080309958091BD0281110FC081E08093B7
:101BE000BD0210929D0209C0803C09F4A6CF883C3A
:101BF00009F4A3CF883B09F07BCFE091BE0281E0DE
:101C00008E0F8093BE02F0E0E356FD4F80818093FB
:101C1000BB009091BE028091BD0229C080911D033E
:101C20008093BB0085EC8093BC0062CF90913F0312
:101C300080913E03981758F5E0913F0381E08E0FA5
:101C400080933F03F0E0E25EFC4F8081E9CFE091BA
:101C50003F0381E08E0F80933F038091BB00F0E053
:101C6000E25EFC4F808390913F0380913E03981782
:101C7000C8F285E8D8CFE0913F0381E08E0F8093D2
:101C80003F038091BB00F0E0E25EFC4F80838091D7
:101C9000410381115CCF81E080931C0384EA80932F
:101CA000BC001092420324CF85EC8093BC001092BC
:101CB00042038091DF02803230F4E091DF02F0E0F5
:101CC000E154FD4F10826091DF0270E0E091050366
:101CD000F09106038FEB92E009951092DF0208CF96
:101CE0001092400334CF4F925F926F927F928F9207
:101CF0009F92AF92BF92CF92DF92EF92FF92CF93DB
:101D0000DF9310926F0310926E0388EE93E0A0E0D1
:101D1000B0E08093700390937103A0937203B0932B
:101D2000730324E132E030936D0320936C0325ECC0
:101D300030E0309379032093780324EC30E0309343
:101D40007B0320937A0320EC30E030937D032093D3
:101D50007C0321EC30E030937F0320937E0322EC60
:101D600030E0309381032093800326EC30E0309301
:101D700083032093820310928503109286031092AE
:101D800087031092880310920C0410920B04809326
:101D90000D0490930E04A0930F04B093100486E2F8
:101DA00092E090930A04809309041092DA0510924D
:101DB000DB051092DC051092DD051092DE05109215
:101DC000DF051092E0051092E1051092E2051092F5
:101DD000E3051092E4051092E505412C512C4EEAE2
:101DE000642E42E4742E4092F6055092F7056092FC
:101DF000F8057092F905812C912C50ECA52E50E439
:101E0000B52E8092FA059092FB05A092FC05B09247
:101E1000FD0564EEC62E6BECD62E66E1E62E62E47E
:101E2000F62EC092FE05D092FF05E0920006F092D9
:101E300001061092020610920306109204061092F8
:101E400005061092060610920706109208061092D8
:101E50000906C1E0D0E0D0930B06C0930A0682E1E8
:101E600090E090930D0680930C0683E190E09093B0
:101E70000F0680930E0685E090E090931106809304
:101E8000100686E090E0909313068093120687E098
:101E900090E0909315068093140660E082E10E9422
:101EA000D90160E083E10E94D90161E085E00E94F0
:101EB000D90161E086E00E94D90161E087E00E94DB
:101EC000D90110929A0510929B0510929C051092D0
:101ED0009D0510929E0510929F051092A0051092EC
:101EE000A1051092A2051092A3051092A4051092CC
:101EF000A5054092B6055092B7056092B80570925C
:101F0000B9058092BA059092BB05A092BC05B0922B
:101F1000BD05C092BE05D092BF05E092C005F0920B
:101F2000C1051092C2051092C3051092C40510920B
:101F3000C5051092C6051092C7051092C8051092EB
:101F4000C905D093CB05C093CA0582E090E0909379
:101F5000CD058093CC0583E090E09093CF058093EE
:101F6000CE058BE090E09093D1058093D0058DE075
:101F700090E09093D3058093D2058CE090E090930D
:101F8000D5058093D40560E082E00E94D90160E02D
:101F900083E00E94D90161E08BE00E94D90161E0F9
:101FA0008DE00E94D90161E08CE00E94D9018AE5B0
:101FB00090E090939205809391058091A5048033E1
:101FC00008F0C5C091E0980F9093A5048093930505
:101FD00090E0FC01EE0FFF1FE80FF91FEB5EFB4FD7
:101FE00088EB9BE09283818389E090E09093900559
:101FF00080938F058CE990E3A5E6B2E480935705C2
:1020000090935805A0935905B0935A0586E696E635
:10201000A6EEBEE380935B0590935C05A0935D05FF
:10202000B0935E0580935F0590936005A093610572
:10203000B09362058093630590936405A093650552
:10204000B0936605109267051092680510926905B5
:1020500010926A0510926B0510926C0510926D0536
:1020600010926E0510926F05109270051092710516
:1020700010927205109273051092740510927505F6
:102080001092760586ED95E09093AA048093A904BA
:1020900086E995E09093AC048093AB048FE895E0DB
:1020A0009093AE048093AD0485EC94E09093B004DB
:1020B0008093AF041092B1041092B2041092B30452
:1020C0001092B4041092B5041092B6041092B704A2
:1020D0001092B8041092B9041092BA041092BB0482
:1020E0001092BC041092BD041092BE041092BF0462
:1020F0001092C0041092C1041092C2041092C30442
:102100001092C4048091A504803328F591E0980FC3
:102110009093A5048093A60490E0FC01EE0FFF1FAE
:10212000E80FF91FEB5EFB4F88EB9BE09283818306
:10213000DF91CF91FF90EF90DF90CF90BF90AF9065
:102140009F908F907F906F905F904F9008958FEF4A
:102150008093930549CF8FEF8093A604E9CFCF9367
:10216000DF93CDB7DEB760970FB6F894DEBF0FBE32
:10217000CDBF789484B5826084BD84B5816084BD10
:1021800085B5826085BD85B5816085BD80916E0015
:10219000816080936E001092810080918100826046
:1021A0008093810080918100816080938100809183
:1021B00080008160809380008091B1008460809372
:1021C000B1008091B00081608093B0008091910057
:1021D0008260809391008091910081608093910052
:1021E000809190008160809390008091A100826036
:1021F0008093A1008091A10081608093A1008091D3
:10220000A00081608093A000809121018260809372
:102210002101809121018160809321018091200121
:1022200081608093200180917A00846080937A009D
:1022300080917A00826080937A0080917A00816038
:1022400080937A0080917A00806880937A0010925F
:10225000C100E0917C03F0917D0382E08083E091F6
:102260007803F09179031082E0917A03F0917B0377
:102270008FEC808310928403E0918003F0918103BE
:1022800086E08083E0917E03F0917F03808180610E
:102290008083E0917E03F0917F038081886080835A
:1022A000E0917E03F0917F03808180688083E091DC
:1022B0007E03F0917F0380818F7D80832091AF0426
:1022C0003091B0043A83298310920A0310920903D3
:1022D0001092490310926B030E94890481E692E0F8
:1022E000909308038093070382E692E0909306039D
:1022F000809305038CE08093B80089E094E0A98185
:10230000BA8111969C938E9388E614968C931497B9
:1023100081E015968C9380E492E4AFE0B0E0E9812F
:10232000FA8187839087A187B28741E06BE6CF016E
:102330000E946109882309F40EC240E26AE689819D
:102340009A810E946109882309F405C24DE064E284
:1023500089819A810E946109882309F4FCC140E0C7
:102360006AE089819A810E941E0A40E86BE68981B1
:102370009A810E94610961E070E080E090E00E9433
:102380002F0241E06BE089819A810E941E0A41E0A0
:102390006BE689819A810E946109882309F4DBC177
:1023A000C980DA80F1E3CF0ED11CA981BA811796DA
:1023B0000D911D912D913C911A97760141E065E7B1
:1023C000CD010E940208882309F4C5C1E981FA8180
:1023D00081A98D7F813709F0BEC140E26AE6CF0155
:1023E0000E946109882309F4B6C14DE064E2898145
:1023F0009A810E946109882309F4ADC1960141E0E8
:1024000060E089819A810E94E509882309F4A3C1CB
:10241000A981BA81D1968C91D197883409F09BC15A
:1024200040E06AE0CD010E941E0A882309F493C1AE
:1024300064E670E080E090E00E942F024FE06AE0E6
:1024400089819A810E941E0A882309F484C164E666
:1024500070E080E090E00E942F0229813A812E5D99
:102460003F4F43E060E189819A810E94E50988231A
:1024700009F471C1E981FA8162A170E090E080E025
:102480000E94F71820E030E040E053E40E948E1AEA
:1024900020E030E040E85BE30E94581920E030E0A3
:1024A00040E85FE30E948F1A20E030E849E955E4F4
:1024B0000E94581920E030EF4FEF56E40E946D1B48
:1024C000A981BA8195966D937D938D939C939897EE
:1024D00093966C9170E090E080E00E94F71820E005
:1024E00030E040E053E40E948E1A20E030E040E803
:1024F0005BE30E94581920E030E040E85FE30E946F
:102500008F1A20E030E849E955E40E94581920E08C
:1025100030EF4FEF56E40E946D1BE981FA8161A70D
:1025200072A783A794A764A170E090E080E00E9466
:10253000F71820E030E040E053E40E948E1A20E0DB
:1025400030E040E85BE30E94581920E030E040E8CA
:102550005FE30E948F1A20E030E849E955E40E94C9
:10256000581920E030EF4FEF56E40E946D1BA9810F
:10257000BA819D966D937D938D939C93D09740E007
:102580006AE0CD010E941E0A882309F4E4C046E1F6
:102590006AE089819A810E941E0A882309F4DBC0BF
:1025A00064E670E080E090E00E942F0241E06BE67C
:1025B00089819A810E946109882309F4CCC050E482
:1025C000C52E52E4D52E5FE0E52EF12CE981FA818B
:1025D000C782D086E186F28618E1148780E890E011
:1025E000A0E0BAE3858B968BA78BB08F48E16CE1B6
:1025F000CF010E946109882309F4ADC0A981BA8185
:102600001C968C911C971B968C931B97FD018589BA
:102610009689A789B08D818B928BA38BB48BC7824F
:10262000D086E186F28616878AEF90E0AAE7BDE3BE
:10263000858F968FA78FB0A348E16BE1CF010E94F1
:102640006109882309F487C0A981BA811E968C91FB
:102650001E971D968C931D97FD01858D968DA78DD8
:10266000B0A1818F928FA38FB48FC782D086E1866D
:10267000F28681E0808B41E06DE1CF010E9461092B
:10268000882309F468C0E981FA8140896AE1CF01B1
:102690000E946109882309F45EC0A981BA8150961D
:1026A0008C9150971F968C931F97FD01C782D086FF
:1026B000E186F28643E169E1CD010E946109882348
:1026C00009F449C040E06AE089819A810E941E0AAB
:1026D00064E670E080E090E00E942F0246E16AE04C
:1026E00089819A810E941E0A8823A9F164E670E01C
:1026F00080E090E00E942F0209811A810B5C1F4F3D
:10270000980148E062E089819A810E94E509882366
:1027100011F140E069E189819A810E946109882371
:10272000D1F0A981BA8191961C929197FD01C7823F
:10273000D086E186F28643E169E1CD010E9461091C
:10274000811112C088E792E00E94B60685E792E008
:102750000E94B606FFCF80E492E00E94B60685E7AD
:1027600092E00E94B606FFCF40E06AE089819A813C
:102770000E941E0A64E670E080E090E00E942F0252
:1027800042E16AE089819A810E941E0A8823D1F27F
:1027900064E670E080E090E00E942F02980148E03B
:1027A00062E089819A810E94E509882359F243E118
:1027B00069E189819A810E946109882319F283E184
:1027C000A981BA8191968C9380919305803308F00A
:1027D00055C0B0918F05B98361E08B2F0E94D9015C
:1027E00020919305822F90E0FC01EE0FFF1FE80F70
:1027F000F91FEB5EFB4F39813F738081807C832B17
:10280000808310929405109295053CE0822F632FEF
:102810000E94791A839FB001112450E040E0DB014F
:10282000A40FB51FFD01EE0FFF1FEA0FFB1FEB5EAC
:10283000FB4F908196FD17C04F5F5F4F4C305105A5
:1028400071F7813009F0A2C41092800082E0809379
:1028500081001092850010928400B19A80916F00DF
:10286000826080936F0030E0F901EE0FFF1FE20FEE
:10287000F31FEB5EFB4F8081806480834091930562
:102880004983A0919105B0919205A03252E0B5071D
:102890000CF03DC080919405E8E8CE2ED12CC81AEA
:1028A000D10887FDD394CC0CDD1CCC0CDD1C0D2C89
:1028B000000CEE08FF088091950508E512E0081B62
:1028C000110987FD1395000F111F000F111F012E15
:1028D000000C220B330BA90198012C193D094E095C
:1028E0005F09A53BB10514F0A4EBB0E0B7FF02C04F
:1028F000B0E0A0E00E94401A24EB30E040E050E05D
:102900000E94161AC20ED31EE41EF51ED60169815E
:10291000603398F52091940588E890E0821B910936
:1029200027FD9395880F991F880F991FA817B9073E
:1029300084F02091950588E592E0821B910927FD9E
:102940009395880F991F880F991FA817B9070CF442
:10295000CD010297880F991F4FB7F8947981272FDF
:1029600030E0D901AA0FBB1FA20FB31FAB5EBB4F54
:1029700012969C938E9311974FBF84E398E09093A7
:10298000E7058093E60546E656E666EE7FE340936C
:10299000E8055093E9056093EA057093EB0546E678
:1029A00056E666EA7FE34093EC055093ED056093AD
:1029B000EE057093EF051092F0051092F10510925C
:1029C000F2051092F3059093A7058093A60580E089
:1029D00090E0A0E4B0E48093A8059093A905A093AB
:1029E000AA05B093AB0580E090E0A0E0B0E480934E
:1029F000AC059093AD05A093AE05B093AF051092D2
:102A0000B0051092B1051092B2051092B3058EEA8E
:102A100096E090930B0280930A0280916900806C8B
:102A200080936900EB9A82EB96E090930102809389
:102A3000000280916A00836080936A00EC9A0E9491
:102A40000A026B017C0180910F0390911003A09109
:102A50001103B0911203A7019601281B390B4A0BF1
:102A60005B0BCA01B9010E94F91820E034E244E787
:102A700059E40E946D1B60930B0370930C038093C9
:102A80000D0390930E03C0920F03D0921003E092B7
:102A90001103F092120381E992E00E94B60640EC25
:102AA00051EE64EE70E04093CC045093CD046093FB
:102AB000CE047093CF041092F8041092F70482E0D1
:102AC000E82E85E0F82E00EC11EE24EE30E047E130
:102AD0006AE385EC94E00E940208882309F49FC110
:102AE0008091020581708093F704882309F497C1CF
:102AF0006090030570900405762467247624709214
:102B00001A056092190560910505709106057627F2
:102B10006727762770931C0560931B058090070537
:102B20009090080598248924982490921E058092FC
:102B30001D05A0900905B0900A05BA24AB24BA245B
:102B4000B0922605A0922505E0900B05F0900C05AB
:102B5000FE24EF24FE24F0922005E0921F05C09091
:102B60000D05D0900E05DC24CD24DC24D092220566
:102B7000C092210580910F05909110059827892713
:102B800098279A87898790932405809323058091BD
:102B9000110581708093F8040091120510911305BE
:102BA0001093280500932705A0911405B0911505F1
:102BB000BA83A983B0932A05A0932905E09116054D
:102BC000F0911705FE83ED83F0932C05E0932B0520
:102BD0009091180581E0292F287093FF80E0809361
:102BE000F90421111092F8042090D6043090D704F3
:102BF0004090D8045090D904072E000C880B990BF4
:102C00000E94F918A20191010E9458192AE038EE99
:102C10004CE151E40E94581960932D0570932E05E4
:102C200080932F0590933005B301770C880B990B97
:102C30000E94F918A20191010E9458192AE038EE69
:102C40004CE151E40E9458196093310570933205AC
:102C50008093330590933405B401990C880B990B3C
:102C60000E94F918A20191010E94581990582AE077
:102C700038EE4CE151E40E94581960933505709389
:102C800036058093370590933805B501BB0C880B4A
:102C9000990B0E94F91820E030E048EA51E40E94C4
:102CA0008E1A2CE53FEE46EA53E40E946D1B20E0AD
:102CB00030E048EA51E40E948F1A60935105709306
:102CC000520580935305909354058090DE049090B4
:102CD000DF04A090E004B090E104B601DD0C880BA5
:102CE000990B0E94F918A50194010E94581925E337
:102CF0003AEF4EE85CE30E945819609339057093EF
:102D00003A0580933B0590933C05B701FF0C880B77
:102D1000990B0E94F918A50194010E94581925E306
:102D20003AEF4EE85CE30E94581960933D057093BA
:102D30003E0580933F059093400529853A85B9016A
:102D4000330F880B990B0E94F918A50194010E947A
:102D50005819905825E33AEF4EE85CE30E94581961
:102D60006093410570934205809343059093440519
:102D70008091F804882309F452C0B801110F880B20
:102D8000990B0E94F9189B01AC016091EA047091C3
:102D9000EB048091EC049091ED040E94581960932B
:102DA00045057093460580934705909348054981F2
:102DB0005A81BA01550F880B990B0E94F9189B0193
:102DC000AC016091EE047091EF048091F004909159
:102DD000F1040E9458196093490570934A05809345
:102DE0004B0590934C05AD81BE81BD01BB0F880B97
:102DF000990B0E94F9189B01AC016091F20470914B
:102E0000F3048091F4049091F5040E9458196093A2
:102E10004D0570934E0580934F05909350050E9489
:102E20000A022B013C012091390530913A0540916D
:102E30003B0550913C052D833E834F83588720935B
:102E40007705309378054093790550937A05409142
:102E50003D0550913E0560913F05709140054987C1
:102E60005A876B877C8740937B0550937C056093E2
:102E70007D0570937E058091410590914205A0915A
:102E80004305B091440580937F0590938005A093FE
:102E90008105B093820523EC35EF4CE151E460915C
:102EA0002D0570912E0580912F05909130050E947F
:102EB0006D1B4B015C018092830590928405A0926A
:102EC0008505B092860523EC35EF4CE151E4609125
:102ED00031057091320580913305909134050E943F
:102EE0006D1B6D877E878F87988B609387057093A6
:102EF00088058093890590938A0523EC35EF4CE192
:102F000051E46091350570913605809137059091B7
:102F100038050E946D1B6B017C01C0928B05D0921D
:102F20008C05E0928D05F0928E0580910F039091B3
:102F30001003A0911103B0911203A3019201281B69
:102F4000390B4A0B5B0BCA01B9010E94F91820E04A
:102F500034E244E759E40E946D1B69837A838B83D2
:102F60009C8360930B0370930C0380930D039093E9
:102F70000E0340920F03509210036092110370925F
:102F80001203A7019601C501B4010E940E1B809097
:102F9000570590905805A0905905B0905A05A50185
:102FA00094010E9458192B013C01A70196016D85DF
:102FB0007E858F8598890E940E1B9B01AC01C09075
:102FC0005B05D0905C05E0905D05F0905E05C50165
:102FD000B4010E9458194B015C0129813A814B814F
:102FE0005C816D817E818F8198850E9458199B013B
:102FF000AC01C501B4010E948F1AA70196010E947D
:1030000058194B015C01A701960160E070E080E86F
:103010009FE30E948E1AA30192010E9458199B01FE
:10302000AC01C501B4010E948F1A6B017C01C092F2
:103030006705D0926805E0926905F0926A05809074
:103040005F0590906005A0906105B09062052981B0
:103050003A814B815C8169857A858B859C850E944C
:103060005819A30192010E948F1AA50194010E9490
:1030700058192B013C01A501940160E070E080E843
:103080009FE30E948E1AA70196010E9458199B0186
:10309000AC01C301B2010E948F1A60936B0570935B
:1030A0006C0580936D0590936E0585E992E00E9412
:1030B000B60660917F0570918005809181059091A1
:1030C000820542E00E94260785E792E00E94B6064C
:1030D00020910B0330910C0340910D0350910E038E
:1030E00060917F05709180058091810590918205A6
:1030F0000E9458196B017C012CEA35EC47E258E339
:103100000E94351C181654F02CEA35EC47E258EBB7
:10311000C701B6010E94F21887FF1CC02BE734E1FB
:103120004EE250E4C701B6010E9458199B01AC0160
:1031300060916F0570917005809171059091720595
:103140000E948F1A60936F057093700580937105CC
:10315000909372052091570530915805409159057B
:1031600050915A0560916F057091700580917105BD
:10317000909172050E94581942E00E94260785E747
:1031800092E00E94B6060E94670359CC823061F437
:1031900010929000809391001092950010929400EC
:1031A00088BB809371005FCB833069F41092A000DC
:1031B00082E08093A1001092A5001092A40089BB28
:1031C0008093720050CB81114ECB1092200182E08F
:1031D0008093210110922501109224018ABB8093D3
:1031E000730041CB0E94341908F481E00895E894FB
:1031F00009C097FB3EF490958095709561957F4F3F
:103200008F4F9F4F9923A9F0F92F96E9BB279395EC
:10321000F695879577956795B795F111F8CFFAF4FC
:10322000BB0F11F460FF1BC06F5F7F4F8F4F9F4F2D
:1032300016C0882311F096E911C0772321F09EE88B
:10324000872F762F05C0662371F096E8862F70E0F1
:1032500060E02AF09A95660F771F881FDAF7880FCB
:103260009695879597F90895990F0008550FAA0B21
:10327000E0E8FEEF16161706E807F907C0F0121689
:103280001306E407F50798F0621B730B840B950B8C
:1032900039F40A2661F0232B242B252B21F40895E1
:1032A0000A2609F4A140A6958FEF811D811D08957E
:1032B0000E946B190C94DC190E94CE1938F00E9400
:1032C000D51920F0952311F00C94C5190C94CB1945
:1032D00011240C94101A0E94ED1970F3959FC1F3FC
:1032E000950F50E0551F629FF001729FBB27F00DB4
:1032F000B11D639FAA27F00DB11DAA1F649F662709
:10330000B00DA11D661F829F2227B00DA11D621F57
:10331000739FB00DA11D621F839FA00D611D221F11
:10332000749F3327A00D611D231F849F600D211DF5
:10333000822F762F6A2F11249F5750409AF0F1F078
:1033400088234AF0EE0FFF1FBB1F661F771F881FE1
:1033500091505040A9F79E3F510580F00C94C5193B
:103360000C94101A5F3FE4F3983ED4F3869577955A
:103370006795B795F795E7959F5FC1F7FE2B880F87
:10338000911D9695879597F9089597F99F6780E81D
:1033900070E060E008959FEF80EC089500240A94A7
:1033A0001616170618060906089500240A94121620
:1033B0001306140605060895092E0394000C11F453
:1033C000882352F0BB0F40F4BF2B11F460FF04C000
:1033D0006F5F7F4F8F4F9F4F089557FD9058440F59
:1033E000551F59F05F3F71F04795880F97FB991F64
:1033F00061F09F3F79F08795089512161306140621
:10340000551FF2CF4695F1DF08C0161617061806AD
:10341000991FF1CF86957105610508940895E89488
:10342000BB2766277727CB0197F90895052E97FBD1
:103430001EF400940E942D1A57FD07D00E94481ACE
:1034400007FC03D04EF40C942D1A509540953095FE
:1034500021953F4F4F4F5F4F089590958095709500
:1034600061957F4F8F4F9F4F08950E946A1AA59FC5
:10347000900DB49F900DA49F800D911D112408956F
:10348000B7FF0C94351A0E94351A821B930B0895CE
:10349000A1E21A2EAA1BBB1BFD010DC0AA1FBB1F58
:1034A000EE1FFF1FA217B307E407F50720F0A21BCA
:1034B000B30BE40BF50B661F771F881F991F1A9437
:1034C00069F760957095809590959B01AC01BD0161
:1034D000CF010895A29FB001B39FC001A39F700DBB
:1034E000811D1124911DB29F700D811D1124911D0C
:1034F0000895991B79E004C0991F961708F0961B50
:10350000881F7A95C9F780950895EE0FFF1F002454
:10351000001C0BBE0790F691E02D09945058BB2774
:10352000AA270E94A61A0C94DC190E94CE1938F022
:103530000E94D51920F039F49F3F19F426F40C9419
:10354000CB190EF4E095E7FB0C94C519E92F0E9406
:10355000ED1958F3BA17620773078407950720F02F
:1035600079F4A6F50C940F1A0EF4E0950B2EBA2FF1
:10357000A02D0B01B90190010C01CA01A001112479
:10358000FF27591B99F0593F50F4503E68F11A1625
:10359000F040A22F232F342F4427585FF3CF4695B6
:1035A00037952795A795F0405395C9F77EF41F16D8
:1035B000BA0B620B730B840BBAF09150A1F0FF0FA2
:1035C000BB1F661F771F881FC2F70EC0BA0F621F8E
:1035D000731F841F48F4879577956795B795F7957E
:1035E0009E3F08F0B0CF9395880F08F09927EE0F13
:1035F0009795879508950E94CE1960F080E891E034
:1036000009F49EEF0E94D51928F040E851E071F4CA
:103610005EEF0CC00C94CB190C940F1AE92FE078D4
:103620000E94ED1940F3092E052AB1F3261737073A
:103630004807590738F00E2E07F8E02569F0E02515
:10364000E0640AC0EF6307F8009407FADB01B901F0
:103650009D01DC01CA01AD01EF930E94841B0E9411
:10366000DC190E943E1B5F91552339F02BED3FE0A2
:1036700049E450FD49EC0C948F1A0895DF93DD273F
:10368000B92FBF7740E85FE31616170648075B07B8
:1036900018F4D92F0E943A1C9F938F937F936F93B6
:1036A0000E94421CE4EEF0E00E940E1C0E94DC1915
:1036B0002F913F914F915F910E946B19DD2351F043
:1036C0009058A2EA2AED3FE049EC5FE3D0785D270D
:1036D0000E94A61ADF910C94DC190E94811B0C94A5
:1036E000DC190E94D51958F00E94CE1940F029F437
:1036F0005F3F29F00C94C51951110C94101A0C94C9
:10370000CB190E94ED1968F39923B1F3552391F376
:10371000951B550BBB27AA2762177307840738F040
:103720009F5F5F4F220F331F441FAA1FA9F335D09D
:103730000E2E3AF0E0E832D091505040E695001C51
:10374000CAF72BD0FE2F29D0660F771F881FBB1F0B
:10375000261737074807AB07B0E809F0BB0B802DE9
:10376000BF01FF2793585F4F3AF09E3F510578F015
:103770000C94C5190C94101A5F3FE4F3983ED4F3EF
:10378000869577956795B795F7959F5FC9F7880FE9
:10379000911D9695879597F90895E1E0660F771F3B
:1037A000881FBB1F621773078407BA0720F0621BCC
:1037B000730B840BBA0BEE1F88F7E09508950E94F7
:1037C000F51988F09F5798F0B92F9927B751B0F0A5
:1037D000E1F0660F771F881F991F1AF0BA95C9F795
:1037E00014C0B13091F00E940F1AB1E008950C940A
:1037F0000F1A672F782F8827B85F39F0B93FCCF3BD
:10380000869577956795B395D9F73EF49095809511
:10381000709561957F4F8F4F9F4F0895DF93CF93A2
:103820001F930F93FF92EF92DF927B018C016894BC
:1038300006C0DA2EEF010E946B19FE01E894A591F3
:103840002591359145915591A6F3EF010E94A61A55
:10385000FE019701A801DA9469F7DF90EF90FF90DD
:103860000F911F91CF91DF9108950E94341908F4B0
:103870008FEF08959B01AC0160E070E080E89FE36A
:103880000C946D1B9B01AC010C9458190E943419C7
:0A389000880B990B0895F894FFCF00
:10389A0063026302630263026302630263026302F6
:1038AA0000000000FA02640291024703C202A00269
:1038BA00B402000000000F06E2053E06B805DB056B
:1038CA00C805B9056E616E00696E66006F7666009E
:1038DA004572726F20616F20696E696369616C69F4
:1038EA007A6172206120636F6D756E696361C3A727
:1038FA00C3A36F20636F6D206F2073656E736F7241
:10390A0020696D75000D0A004572726F20616F2083
:10391A00636F6E66696775726172206F20535244D5
:0C392A00005A3A20005961773A20000052
:00000001FF
